:100000000C9462000C948A000C948A000C948A0070
:100010000C948A000C948A000C948A000C948A0038
:100020000C948A000C948A000C948A000C948A0028
:100030000C948A000C948A000C948A000C948A0018
:100040000C945A030C948A000C948A000C948A0035
:100050000C948A000C948A000C948A000C948A00F8
:100060000C9493070C948A000000000024002700E1
:100070002A0000000000250028002B0000000000DE
:1000800023002600290004040404040404040202DA
:100090000202020203030303030301020408102007
:1000A0004080010204081020010204081020000012
:1000B0000008000201000003040700000000000027
:1000C0000000EC0D11241FBECFEFD8E0DEBFCDBF86
:1000D00022E0A6E9B1E001C01D92AA39B207E1F71A
:1000E00011E0A0E0B1E0E0EAF1E202C005900D927B
:1000F000A639B107D9F710E0C2E6D0E004C02197D5
:10010000FE010E94C810C136D107C9F70E94C1087C
:100110000C94300E0C9400008091A00190E020918E
:10012000A101821B91090895CF92DF92EF92FF9275
:100130000F931F93CF93DF936C017A018B01C0E083
:10014000D0E0CE15DF0581F0D8016D918D01D6018B
:10015000ED91FC910190F081E02DC6010995892B6C
:1001600011F02196EECF7E01C701DF91CF911F9153
:100170000F91FF90EF90DF90CF900895833081F042
:1001800028F4813099F08230A1F008958730A9F0E9
:100190008830B9F08430D1F4809180008F7D03C025
:1001A000809180008F7780938000089584B58F7749
:1001B00002C084B58F7D84BD08958091B0008F7793
:1001C00003C08091B0008F7D8093B0000895CF93DD
:1001D000DF93282F30E0F901E255FF4F8491F901B8
:1001E000E656FF4FD491F901EA57FF4FC491CC2353
:1001F00091F081110E94BE00EC2FF0E0EE0FFF1F86
:10020000E458FF4FA591B491EC91ED2381E090E08B
:1002100021F480E002C080E090E0DF91CF9108956A
:10022000CF93DF9390E0FC01E656FF4F2491FC0151
:10023000EA57FF4F8491882361F190E0880F991F5E
:10024000FC01E859FF4FC591D491FC01EE58FF4FD6
:10025000A591B491611109C09FB7F8948881209548
:1002600082238883EC912E230BC0623061F49FB708
:10027000F8948881322F309583238883EC912E2B3C
:100280002C939FBF06C08FB7F894E8812E2B28834C
:100290008FBFDF91CF910895089580E090E0089599
:1002A000CF92DF92EF92FF920F931F93CF93DF9342
:1002B0007C01CB018A012091C601222389F0EB0148
:1002C0006B01C40ED51ECC15DD0569F06991D7010F
:1002D000ED91FC910190F081E02DC7010995F3CFDC
:1002E000642F0E94A403C801DF91CF911F910F9149
:1002F000FF90EF90DF90CF900895CF93DF931F9200
:10030000CDB7DEB769832091C6012223D1F02091B9
:10031000E901203240F021E030E0FC013383228308
:1003200080E090E015C08091C701E82FF0E0E8532D
:10033000FE4F998190838F5F8093C7018093E9017D
:1003400005C061E0CE0101960E94A40381E090E027
:100350000F90DF91CF9108950F931F93CF93DF9369
:10036000EC0188819981009729F02A813B81261729
:10037000370788F48B016F5F7F4F0E94CB0F009788
:1003800061F0998388831B830A832C813D81232B11
:1003900011F4FC01108281E001C080E0DF91CF9177
:1003A0001F910F910895EF92FF920F931F93CF9398
:1003B000DF936115710511F480E01CC041155105F2
:1003C000C1F07B01EC018C819D818A01080F191F0E
:1003D000B801CE010E94AC01882371F328813981D4
:1003E0008C819D81B701820F931F0E949F101D83F6
:1003F0000C8381E0DF91CF911F910F91FF90EF90DF
:100400000895CF93DF93EC0188819981009711F0D3
:100410000E94420F198218821D821C821B821A823E
:10042000DF91CF910895CF93DF93EC0161157105B2
:1004300061F0FB0101900020E9F73197AF01461B05
:10044000570B0E94D301811103C0CE010E9401020B
:10045000CE01DF91CF9108951F93CF93DF93282F83
:1004600030E0F901E255FF4F8491F901E656FF4F64
:10047000D491F901EA57FF4FC491CC23C1F0162F54
:1004800081110E94BE00EC2FF0E0EE0FFF1FEE582E
:10049000FF4FA591B4919FB7F894111104C08C91AE
:1004A000D095D82302C0EC91DE2BDC939FBFDF9167
:1004B000CF911F9108953FB7F89480916602909173
:1004C0006702A0916802B091690226B5A89B05C099
:1004D0002F3F19F00196A11DB11D3FBFBA2FA92FC3
:1004E000982F8827820F911DA11DB11DBC01CD0140
:1004F00042E0660F771F881F991F4A95D1F708952C
:10050000089508950895E091A1018091A001E81750
:1005100030F4F0E0EA55FE4F808190E008958FEFCF
:100520009FEF08959091A1018091A001981750F438
:10053000E92FF0E0EA55FE4F208130E09F5F909375
:10054000A10102C02FEF3FEFC9010895FC01808196
:100550009181009711F00C94420F0895CF93DF938F
:10056000EC01FB0144815581608171810E94D301BE
:10057000811103C0CE010E940102CE01DF91CF9113
:100580000895CF92DF92EF92FF920F931F93CF9334
:10059000DF93CDB7DEB729970FB6F894DEBF0FBE55
:1005A000CDBF8C01862FF801118210821382128236
:1005B000158214824AE09E012F5F3F4F6901B90105
:1005C00090E00E94330EF60101900020E9F7319788
:1005D0007F01EC18FD08B701C8010E94AC01811130
:1005E00004C0C8010E94010208C0F801F582E4823B
:1005F000B601808191810E949F1029960FB6F894D0
:10060000DEBF0FBECDBFDF91CF911F910F91FF9045
:10061000EF90DF90CF9008950E94911061157105C1
:1006200051F0FB0101900020E9F73197AF01461B23
:10063000570B0C94940080E090E008950C940E0306
:100640008F929F92AF92BF92CF92DF92EF92FF92E2
:100650006B017C010E945B024B015C01C114D1045F
:10066000E104F104F1F00E945B02DC01CB01881986
:100670009909AA09BB09883E9340A105B10570F309
:1006800021E0C21AD108E108F10888EE880E83E063
:10069000981EA11CB11CC114D104E104F10419F786
:1006A000DDCFFF90EF90DF90CF90BF90AF909F9005
:1006B0008F9008951F920F920FB60F9211242F93CF
:1006C0003F938F939F93AF93BF93809162029091DA
:1006D0006302A0916402B09165023091610223E04F
:1006E000230F2D3720F40196A11DB11D05C026E86A
:1006F000230F0296A11DB11D209361028093620217
:1007000090936302A0936402B093650280916602A5
:1007100090916702A0916802B09169020196A11DB3
:10072000B11D8093660290936702A0936802B09314
:100730006902BF91AF919F918F913F912F910F903F
:100740000FBE0F901F90189540913E02262F30E06B
:10075000240F311D21323105DCF420919002243028
:10076000C9F4FC0180E090E0861758F430913E0215
:100770002191DC01A25EBD4FA30FB11D2C93019608
:10078000F3CF80913E02680F60933E0280E00895AF
:1007900081E0089582E008951092900281E08093B4
:1007A0008F0210926A0261E082E10E942C0261E0F5
:1007B00083E10E942C02E9EBF0E080818E7F808350
:1007C00080818D7F808388E48093B80085E4809366
:1007D000BC000895CF93DF9391E090931D0288238E
:1007E000B9F0C091B800D091BA008091BC008A7B6A
:1007F0008093BC0060E082E10E942C0260E083E113
:100800000E942C020E94CC03D093BA00C093B8007F
:10081000DF91CF9108958F929F92AF92BF92CF9226
:10082000DF92EF92FF920F931F93CF93DF9310917C
:10083000E901113208F0C2C0082FD091E8010E94EE
:100840005B026B017C01C0919002CC2311F180917D
:10085000920290919302A0919402B0919502892BFB
:100860008A2B8B2B81F30E945B02809092029090E6
:100870009302A0909402B0909502DC01CB018C19F8
:100880009D09AE09BF0988169906AA06BB06D8F6C7
:1008900081C082E08093900200938F028FEF80935B
:1008A0008E0210928D0210938C02A8ECB1E0ECE65F
:1008B000F2E080E0181721F09D9191938F5FFACFBD
:1008C00010926B0290916B028D2F880F892B809371
:1008D0006B0280916A02813089F510926A020E944F
:1008E0005B026B017C0180916B028093BB00809165
:1008F000920290919302A0919402B0919502892B5B
:100900008A2B8B2BA9F00E945B020091920210911E
:1009100093022091940230919502DC01CB018C1955
:100920009D09AE09BF09081719072A073B0790F16F
:100930008091BC0083FDD7CF85EC01C085EE80930C
:10094000BC000E945B026B017C01809190028230AE
:1009500039F58091920290919302A0919402B09106
:100960009502892B8A2B8B2B81F30E945B020091CD
:100970009202109193022091940230919502DC0131
:10098000CB018C199D09AE09BF09081719072A0761
:100990003B07D8F6809191020E94EA03C5E013C09C
:1009A00080918E028F3F79F080918E02803241F0EB
:1009B00080918E02803331F0C4E005C0C1E003C0F5
:1009C000C2E001C0C3E01092C7011092E901109289
:1009D000C6018C2FDF91CF911F910F91FF90EF9067
:1009E000DF90CF90BF90AF909F908F900895FC01C3
:1009F000248131E03093C6012093E8011092C701B1
:100A00001092E9018385682B8AEE91E00E947D01B6
:100A100081E00C940B040F931F93CF938C01C62F8E
:100A20000E94F7046C2F6460C8010E94F7046C2FC9
:100A30006B7FC8010E94F70483EC90E00197F1F707
:100A4000CF911F910F9108950F931F93CF93DF9331
:100A50008C01C62FD42F607F642B0E940B0580E190
:100A6000C89FB00111246D2BC801DF91CF911F9158
:100A70000F910C940B05CF93DF93CDB7DEB728977A
:100A80000FB6F894DEBF0FBECDBF9C0188E0E7E053
:100A9000F1E0DE01119601900D928A95E1F7F901DE
:100AA0008085841710F44FEF480FFE013196E40F54
:100AB000F11DE40FF11D9081690F606840E0C901EC
:100AC00028960FB6F894DEBF0FBECDBFDF91CF9151
:100AD0000C942405CF92DF92EF92FF920F931F9315
:100AE000CF93DF93CDB7DEB7AA970FB6F894DEBFEA
:100AF0000FBECDBF8C0140E060E00E943B056CE77B
:100B000071E0C8010E941E0340E060E0C8010E943D
:100B10003B056FA9CE0101960E94C10268ADCE01CE
:100B200007960E94C10269ADCE010D960E94C102D6
:100B30006AADCE0143960E94C1026BADCE014996CB
:100B40000E94C1026CADCE0185960E94C10218A21E
:100B50001F8E1AA219A21CA21BA2EDA0FEA0E114D6
:100B6000F104A9F0C9A4DAA4B601CE014F960E94FF
:100B7000AC01811105C0CE014F960E94010207C051
:100B8000DCA2CBA2B7018F8D98A10E949F1061E9D2
:100B900071E0CE014F960E941302BE01675E7F4F47
:100BA0000E94AE0261E971E00E941302BE016D5E17
:100BB0007F4F0E94AE026FE871E00E941302BE01F7
:100BC000635F7F4F0E94AE0263E971E00E941302EF
:100BD000BE01695F7F4F0E94AE0263E971E00E942F
:100BE0001302BE016F5F7F4F0E94AE02FC01448181
:100BF000558160817181C8010E949400CE014F9699
:100C00000E94A602CE0185960E94A602CE014996B8
:100C10000E94A602CE0143960E94A602CE010D9626
:100C20000E94A602CE0107960E94A602CE0101965E
:100C30000E94A602AA960FB6F894DEBF0FBECDBFE3
:100C4000DF91CF911F910F91FF90EF90DF90CF90A8
:100C5000089541E00E94240581E090E008958F927C
:100C60009F92AF92BF92CF92DF92EF92FF92CF937B
:100C7000DF93CDB7DEB7A1970FB6F894DEBF0FBEF6
:100C8000CDBF6B017C0141E06DE281E192E00E9409
:100C9000240522273327A9012C193D094E095F0994
:100CA00019A27E0181E2E80EF11C8AE0882E912CC7
:100CB000A12CB12CCA01B901A50194010E94A61072
:100CC000605DF70162937F012115310541055105F2
:100CD00089F7BF0181E192E00E940E030196A1967F
:100CE0000FB6F894DEBF0FBECDBFDF91CF91FF905E
:100CF000EF90DF90CF90BF90AF909F908F9008952E
:100D00008F929F92AF92BF92CF92DF92EF92FF921B
:100D10000F931F93CF93DF93F82ED62F613208F0F5
:100D2000BBC00E945B024B015C01C0919002CC23CE
:100D300031F18091920290919302A0919402B0912E
:100D40009502892B8A2B8B2B81F30E945B020091E9
:100D50009202109193022091940230919502DC014D
:100D6000CB0188199909AA09BB09081719072A078D
:100D70003B07D8F6809191020E94EA038DC081E082
:100D80008093900280938F029FEF90938E02109237
:100D90008D029D0F90938C0280936B0290916B0259
:100DA0008F2D880F892B80936B0280916A0281308E
:100DB00089F510926A020E945B026B017C018091AE
:100DC0006B028093BB008091920290919302A0915C
:100DD0009402B0919502892B8A2B8B2BA9F00E944B
:100DE0005B028090920290909302A0909402B09047
:100DF0009502DC01CB018C199D09AE09BF0988164B
:100E00009906AA06BB0690F18091BC0083FDD7CF5E
:100E100085EC01C085EE8093BC000E945B026B01F3
:100E20007C0180919002813031F580919202909105
:100E30009302A0919402B0919502892B8A2B8B2B5F
:100E400081F30E945B028090920290909302A090A6
:100E50009402B0909502DC01CB018C199D09AE097A
:100E6000BF0988169906AA06BB06D8F6809191029A
:100E70000E94EA0312C080918D028D1710F4D09168
:100E80008D02ECE6F2E0A6EAB1E0C0E0CD1729F071
:100E900081918D93CF5FFACFC0E08C2FDF91CF91FE
:100EA0001F910F91FF90EF90DF90CF90BF90AF9088
:100EB0009F908F90089585ED8093BC008091920261
:100EC00090919302A0919402B09195020796A11D72
:100ED000B11D23E0B695A795979587952A95D1F7EB
:100EE0002091BC0024FF1CC04091920250919302BB
:100EF0006091940270919502452B462B472B81F30C
:100F00000097A105B10541F02AE22A95F1F700C04A
:100F10000197A109B109E4CF809191020C94EA03F1
:100F20001092900208951F920F920FB60F92112403
:100F30002F933F934F935F936F937F938F939F93E1
:100F4000AF93BF93EF93FF938091B900887F803672
:100F500009F49CC068F5883209F45BC090F48031D4
:100F600009F454C038F4882309F4F6C0883009F431
:100F70004DC0F6C0883109F44CC0803209F45DC020
:100F8000EFC0803409F468C048F4803309F455C0D8
:100F9000883309F0E5C080938E02D8C0803509F40B
:100FA0004FC0883509F45DC0883409F0D9C0D6C077
:100FB000883909F4C7C0A8F4883709F467C038F441
:100FC000883609F463C0803709F460C0C9C0883826
:100FD00009F4B8C0803909F45FC0803809F0C0C096
:100FE0005BC0803B09F486C038F4803A09F466C0DF
:100FF000883A09F47FC0B4C0803C09F4A7C0883C9B
:1010000009F4A4C0883B09F48AC0AAC080916B028D
:1010100010C090918D0280918C02981770F5E0912C
:101020008D0281E08E0F80938D02F0E0E459FD4F38
:1010300080818093BB0085EC86C080938E028EC039
:10104000E0918D0281E08E0F80938D028091BB0034
:10105000F0E0E459FD4F808390918D0280918C02E5
:101060006EC0E0918D0281E08E0F80938D028091A1
:10107000BB00F0E0E459FD4F808380918F02811125
:101080006DC081E080936A0284EA61C083E080934E
:10109000900210926002CFCF80916002803208F0FF
:1010A00051C0E091600281E08E0F809360028091D8
:1010B000BB00F0E0E05CFD4F8083BDCF85EC80930A
:1010C000BC001092900280916002803230F4E09176
:1010D0006002F0E0E05CFD4F10826091600270E021
:1010E000E091A401F091A50180E492E009951092AD
:1010F000600236C084E08093900210923F0210920A
:101100003E02E091A201F091A301099580913E0277
:10111000811105C081E080933E0210921E02E09191
:101120003F0281E08E0F80933F02F0E0E25EFD4FD0
:1011300080818093BB0090913F0280913E0298177E
:1011400008F479CF85E88093BC000AC085EC8093D1
:10115000BC001092900204C010928E020E945B07A5
:10116000FF91EF91BF91AF919F918F917F916F917F
:101170005F914F913F912F910F900FBE0F901F9055
:101180001895CF93DF93CDB7DEB7A1970FB6F8943C
:10119000DEBF0FBECDBF789484B5826084BD84B5B8
:1011A000816084BD85B5826085BD85B5816085BD62
:1011B00080916E00816080936E001092810080911A
:1011C00081008260809381008091810081608093A2
:1011D0008100809180008160809380008091B100C7
:1011E00084608093B1008091B00081608093B000F2
:1011F00080917A00846080937A0080917A00826086
:1012000080937A0080917A00816080937A00809147
:101210007A00806880937A001092C10061E08DE0CE
:101220000E9410011092A1011092A0011092C7011A
:101230001092E9010E94CC0380E892E09093A30110
:101240008093A20181E892E09093A5018093A4018C
:1012500080911602886080931602A4E0FA2EF09224
:10126000190262E370E080E090E00E942003609148
:101270001C0281E192E00E94F70468EE73E080E0D6
:1012800090E00E94200360E381E192E00E940B0560
:101290000BE416E4C8010197F1F760E381E192E005
:1012A0000E940B05C8010197F1F760E381E192E02C
:1012B0000E940B0583E592E00197F1F760E281E17E
:1012C00092E00E940B0560911602606240E081E1AD
:1012D00092E00E942405F092170240E06CE081E168
:1012E00092E00E94240540E061E081E192E00E94EA
:1012F00024050BE31FE1C8010197F1F782E0809319
:10130000180240E066E081E192E00E94240540E09E
:1013100062E081E192E00E942405C8010197F1F7A3
:1013200088E080931C0260E081E192E00E94F70473
:1013300060E084E00E94100160E083E00E94100100
:1013400060E086E00E94100160E085E00E941001EC
:1013500060E087E00E94100161E08DE00E941001D2
:1013600083E00E94E700892B31F086E00E94E700CD
:10137000892B09F0E3C384E00E94E700892B31F058
:1013800086E00E94E700892B09F0DFC384E00E9419
:10139000E700892B31F085E00E94E700892B09F0F6
:1013A000DCC342E060E081E192E00E943B0569E33A
:1013B00071E081E192E00E941E0342E068E081E179
:1013C00092E00E943B0560919C0170919D0180918B
:1013D0009E0190919F0197FF03C00E942F061FC09E
:1013E0009B01AC0119A28E010F5D1F4FFAE0CF2EB9
:1013F000D12CE12CF12CCA01B901A70196010E9460
:10140000A610605DF80162938F0121153105410539
:10141000510589F7BF0181E192E00E940E0360E06F
:101420008DE00E942C026AE0462E512C612C712C1A
:1014300001E022242A947FE7372EE5E28E2EE1E0B8
:101440009E2E10E88091F6010093C6018093E8017A
:101450001092C7011092E90160E08AEE91E00E94CB
:101460007D0181E00E940B0480910102813011F422
:1014700068E001C063E18091F6010E94800610924D
:10148000A1018093A0018AEE91E00E949202982F20
:101490009695969596959E70292F220F220F920F62
:1014A0008F70890F8093F8018AEE91E00E9492027A
:1014B000982F9695969596959E70292F220F220F1C
:1014C000920F8F70890F8093F9018AEE91E00E944C
:1014D0009202982F9695969596959670292F220FA1
:1014E000220F920F8F70890F8093FA018AEE91E09C
:1014F0000E949202982F92959F708F70FAE09F9FA2
:10150000800D11248093FE018AEE91E00E949202E8
:10151000982F92959F708F702AE0929F800D1124D2
:101520008093FB018AEE91E00E94920284FB99274E
:1015300090F9990F292F220F220F920F8F70890F88
:101540008093FC018AEE91E00E949202982F92957E
:101550009F708F703AE0939F800D11248093FD015E
:10156000309200022092FF01809101028130C1F48B
:101570008AEE91E00E94920284FF07C0881F8827AC
:10158000881F809580930E025AC183709927019716
:1015900021F440E140930E0252C110920E024FC15D
:1015A00010920202109308028AEE91E00E949202C9
:1015B000982F991F9927991F20910202922B90939F
:1015C0000202982F9695969596959E70292F220F38
:1015D000220F920F8F70890F809303028AEE91E0A1
:1015E0000E949202282F207830E096E035952795CA
:1015F0009A95E1F790910202292B20930202982FED
:101600009695969596959E70292F220F220F920FF0
:101610008F70890F809304028AEE91E00E949202FB
:10162000282F207830E045E0359527954A95E1F759
:1016300090910202292B20930202982F969596955D
:1016400096959670292F220F220F920F8F70890F77
:10165000809305028AEE91E00E949202282F207862
:1016600030E054E0359527955A95E1F790910202C4
:10167000292B922F9F7041F4482F407450E05595CC
:10168000479555954795242B20930202982F9695C0
:10169000969596959670292F220F220F920F8F7094
:1016A000890F809306028AEE91E00E949202282F11
:1016B000207830E0E6E035952795EA95E1F79091BE
:1016C0000802292B20930802982F969596959695B7
:1016D0009E70292F220F220F920F8F70890F8093F7
:1016E00009028AEE91E00E949202282F207830E0D1
:1016F000F5E035952795FA95E1F790910802292BA9
:1017000020930802982F9695969596959670292F76
:10171000220F220F920F8F70890F80930A028AEE98
:1017200091E00E949202282F207830E0A4E03595C5
:101730002795AA95E1F790910802292B922F9E7088
:1017400041F4482F407450E055954795559547957D
:10175000242B20930802982F9E718F70890F8093FD
:101760000B028AEE91E00E94920282FF15C06EEF9A
:1017700060930E0280FF06C09091020290629093E7
:10178000020202C01092020281FF0BC08091080287
:1017900080628093080207C0887180930E021092C5
:1017A0000202109308028AEE91E00E949202982FA2
:1017B000991F9927991F90930F0283FB992790F9FE
:1017C0009093100281FB992790F990930C028170FD
:1017D000809307028AEE91E00E94920287FD815079
:1017E00080930D028AEE91E00E9492027C018AEEC3
:1017F00091E00E94920297013327220F331F220F9C
:10180000331F992766E0959587956A95E1F7822BB6
:10181000932BE7FE02C09C6F019790930002809388
:10182000FF012091FF0130910002E9E1E29FC00138
:10183000E39F900D1124909300028093FF0180910B
:101840001302909114029C838B839A8289828091E7
:1018500015028D83809116028E83809117028F83EB
:1018600080911802888780911902898780911A02D5
:101870008A8780911B028B8780911C028C872DB7F1
:101880003EB72B5131090FB6F8943EBF0FBE2DBFA6
:10189000ADB7BEB711968BE1E6EFF1E001900D9286
:1018A0008A95E1F7CE0101960E946A0587E00E94C1
:1018B000E7000FB6F894DEBF0FBECDBF892B99F5B8
:1018C00043E060E081E192E00E943B0561E471E069
:1018D00081E192E00E941E0380910001811124C1E8
:1018E000C0909C01D0909D01E0909E01F0909F01DE
:1018F0006C2D82E090E00E949C0E9927F7FC9A954F
:101900008F2D7E2D6D2D83E090E00E949C0EB701FF
:10191000992777FD9095892F84E090E00E949C0E96
:101920000093000101C1809100018823C9F182E088
:1019300090E00E94940EF82E83E090E00E94940EB6
:10194000E82E84E090E00E94940E4F2D50E060E07D
:1019500070E05A016B01C82AD601C5014E2D50E036
:10196000542F4427052E000C660B770B842B952BE8
:10197000A62BB72B80939C0190939D01A0939E0171
:10198000B0939F0143E060E081E192E00E943B055B
:1019900065E871E081E192E00E941E03109200016F
:1019A00083E00E94E700892B31F086E00E94E70087
:1019B000892B09F0D9C084E00E94E700892B31F01F
:1019C00086E00E94E700892B09F0E2C084E00E94D3
:1019D000E700892B31F085E00E94E700892B09F0B0
:1019E000E8C020919A0130919B01809198019091DB
:1019F0009901AC01421B530B4F3F6FEF560729F083
:101A000041305105D1F5019601C0019728173907DA
:101A1000A1F5809197018823E9F0809196018111C9
:101A200003C00093960129C080919C0190919D0173
:101A3000A0919E01B0919F010196A11DB11D8093BF
:101A40009C0190939D01A0939E01B0939F011092E1
:101A5000960113C080919C0190919D01A0919E01DF
:101A6000B0919F010196A11DB11D80939C0190939F
:101A70009D01A0939E01B0939F0130939901209303
:101A8000980142E060E081E192E00E943B0569E359
:101A900071E081E192E00E941E0342E068E081E192
:101AA00092E00E943B0560919C0170919D018091A4
:101AB0009E0190919F0197FF03C00E942F061BC0BB
:101AC0009B01AC0119A27E0181E2E80EF11CCA0162
:101AD000B901A30192010E94A610605DF701629313
:101AE0007F01211531054105510589F7BF0181E1CC
:101AF00092E00E940E0380919C0190919D01A09123
:101B00009E01B0919F01803E9047A247B10564F0CD
:101B100061E08DE00E942C0210929C0110929D01C8
:101B200010929E0110929F0190E0A92E90E0B92E94
:101B3000AB2809F487CC0E94000083CC8FEF9FEF85
:101B4000909399018093980116CC1092990110926C
:101B5000980181E08093970119CC81E090E0909307
:101B60009901809398011DCCCC24CA94DC2CD0928E
:101B70009B01C0929A0141E060E081E192E00E9405
:101B80003B056CE471E081E192E00E941E0313CFFB
:101B900010929B0110929A0141E060E081E192E095
:101BA0000E943B056CE571E081E192E00E941E031A
:101BB0000DCF21E030E030939B0120939A0141E06A
:101BC00060E081E192E00E943B056CE671E081E11A
:101BD00092E00E941E0305CFEAEEF1E0138212822A
:101BE00088EE93E0A0E0B0E084839583A683B7837A
:101BF00083E191E091838083E1E1F2E0138212823C
:101C000085E291E09183808387E2848384E1818708
:101C100084E082871386E6EFF1E088E690E0918326
:101C20008083128213821482158216821782108694
:101C30008FE097E29287818783E0838714861586F9
:101C400016861786108A118A80E8828B138A148A76
:101C5000158A168A178A8EEF808F118E128E08953C
:101C6000F8940C94CE10BB27FB015527AA27880FA8
:101C7000991FAA1FA41710F0A41B83955051B9F700
:101C8000A05DAA3308F0A95DA193009779F7B1117F
:101C9000B1931192CB010C944D0EDC01FC01672F26
:101CA00071917723E1F7329704C07C916D93708333
:101CB0006291AE17BF07C8F308952F923F924F92DB
:101CC0005F926F927F928F929F92AF92BF92CF92CC
:101CD000DF92EF92FF920F931F93CF93DF93CDB7D5
:101CE000DEB7CA1BDB0B0FB6F894DEBF0FBECDBF4D
:101CF00009942A88398848885F846E847D848C841E
:101D00009B84AA84B984C884DF80EE80FD800C8126
:101D10001B81AA81B981CE0FD11D0FB6F894DEBF09
:101D20000FBECDBFED010895F999FECF92BD81BDE3
:101D3000F89A992780B50895262FF999FECF1FBAF2
:101D400092BD81BD20BD0FB6F894FA9AF99A0FBEE4
:101D5000019608950F931F93CF93DF9382309105DF
:101D600010F482E090E0E0919802F091990220E076
:101D700030E0A0E0B0E0309719F14081518102815C
:101D8000138148175907C8F08417950769F410970D
:101D900031F012960C93129713961C9327C0009360
:101DA00098021093990222C02115310519F04217AB
:101DB000530718F49A01BD01EF01DF01F801DBCFF1
:101DC00021153105F9F0281B390B2430310580F439
:101DD0008A819B816115710521F0FB0193838283C8
:101DE00004C09093990280939802FE01329644C0F9
:101DF000FE01E20FF31F8193919322503109398341
:101E000028833AC02091960230919702232B41F407
:101E100020910301309104013093970220939602A0
:101E200020910101309102012115310541F42DB7B6
:101E30003EB74091050150910601241B350BE091FE
:101E40009602F0919702E217F307A0F42E1B3F0BC6
:101E50002817390778F0AC014E5F5F4F241735071C
:101E600048F04E0F5F1F5093970240939602819364
:101E7000919302C0E0E0F0E0CF01DF91CF911F919C
:101E80000F910895CF93DF93009709F481C0FC016F
:101E9000329713821282A0919802B0919902109702
:101EA00081F420813181820F931F2091960230911D
:101EB00097022817390751F5F0939702E09396029D
:101EC00067C0ED0120E030E0CE17DF0740F44A8123
:101ED0005B819E0141155105F1F0EA01F5CFD383F5
:101EE000C28340815181840F951FC817D90759F4C7
:101EF00088819981840F951F0296918380838A81BE
:101F00009B81938382832115310529F4F0939902F3
:101F1000E09398023DC0E901FB83EA83499159911E
:101F2000C40FD51FEC17FD0761F480819181840FE8
:101F3000951F0296E90199838883828193819B830F
:101F40008A83E0E0F0E012968D919C9113970097C0
:101F500019F0FD01DC01F7CF8D919C9111979D0146
:101F60002E5F3F4F820F931F209196023091970270
:101F70002817390769F4309729F4109299021092C2
:101F8000980202C013821282B0939702A093960225
:101F9000DF91CF910895A0E0B0E0E1EDFFE00C9477
:101FA000610EEC01009721F4CB010E94AA0EB4C08F
:101FB000FC01E60FF71F9C0122503109E217F307DD
:101FC00008F4A8C0D9010D911C91119706171707A5
:101FD000B0F00530110508F49BC0C80104978617BE
:101FE000970708F495C002501109061B170B0193BF
:101FF00011936D937C93CF010E94420F89C05B01C6
:10200000A01AB10A4C01800E911EA0919802B091C5
:102010009902612C712CE12CF12C109709F446C027
:102020008D919C911197A815B905B1F56C0142E00D
:10203000C40ED11CCA14DB0478F14C018A189B0829
:10204000640142E0C40ED11C1296BC901297139604
:10205000AC91B5E0CB16D10440F0B282A38391825B
:102060008082D9016D937C9309C00E5F1F4F800F52
:10207000911FF90191838083EB2DFA2FE114F10474
:1020800031F0D7011396FC93EE93129741C0F09371
:102090009902E09398023CC06816790608F43C0166
:1020A0007D0112960D90BC91A02DB7CF8091960224
:1020B0009091970288169906E1F466167706C8F49F
:1020C0008091010190910201009741F48DB79EB774
:1020D0004091050150910601841B950BE817F90703
:1020E000C8F4F0939702E0939602F901718360833C
:1020F0000FC0CB010E94AA0E7C01009759F0A801E5
:10210000BE010E949610CE010E94420FC70104C07A
:10211000CE0102C080E090E0CDB7DEB7EEE00C94D7
:102120007D0E81E090E0F8940C94CE10FB01DC0170
:1021300002C001900D9241505040D8F70895FB0124
:10214000DC0101900D920020E1F70895A1E21A2E22
:10215000AA1BBB1BFD010DC0AA1FBB1FEE1FFF1F4B
:10216000A217B307E407F50720F0A21BB30BE40B9B
:10217000F50B661F771F881F991F1A9469F76095E2
:102180007095809590959B01AC01BD01CF0108959C
:10219000EE0FFF1F0590F491E02D0994F894FFCF06
:1021A0000100009A022000000040001400540000CA
:1021B0000000007D0150014D0182028C00920283DB
:1021C0000200000000290694004D014C01000000AF
:1021D000000C0394004D014C01436F756E743A205E
:1021E00000506F77657220446F776E00506F73698F
:1021F00074696F6E204C656674202000506F73699F
:1022000074696F6E204D6964646C6500506F73690A
:1022100074696F6E20526967687420002020202046
:1022200020202020202020202020202020202020AE
:06223000002F003A00003F
:00000001FF
