:100000000C945D000C9485000C9485000C94850084
:100010000C9485000C9485000C9485000C9485004C
:100020000C9485000C9485000C9485000C9485003C
:100030000C9485000C9485000C9485000C9485002C
:100040000C94B6060C9485000C9485000C948500E5
:100050000C9485000C9485000C9485000C9485000C
:100060000C94AE040C94850000000008000201000E
:100070000003040700000000000000000000000072
:10008000250028002B0000000000240027002A0083
:10009000040404040404040402020202020203032E
:1000A0000303030301020408102040800102040836
:1000B0001020010204081020000711241FBECFEFFA
:1000C000D8E0DEBFCDBF11E0A0E0B1E0ECECF5E19F
:1000D00002C005900D92AC35B107D9F722E0ACE52E
:1000E000B1E001C01D92A235B207E1F710E0CDE505
:1000F000D0E004C02197FE010E94DE0ACC35D10772
:10010000C9F70E9444070C94B40A0C940000409173
:10011000DA01262F30E0240F311D21323105DCF4C5
:10012000209123022430C9F4FC0180E090E086177E
:1001300058F43091DA012191DC01A654BE4FA30F8F
:10014000B11D2C930196F3CF8091DA01680F609373
:10015000DA0180E0089581E0089582E0089508952D
:1001600008950895E0915D0180915C01E81730F4F5
:10017000F0E0EE59FE4F808190E008958FEF9FEF01
:10018000089590915D0180915C01981750F4E92FDA
:10019000F0E0EE59FE4F208130E09F5F90935D01CB
:1001A00002C02FEF3FEFC901089580915C0190E0FC
:1001B00020915D01821B91090895CF92DF92EF9209
:1001C000FF920F931F93CF93DF937C01CB018A01A2
:1001D00020918201222389F0EB016B01C40ED51E10
:1001E000CC15DD0569F06991D701ED91FC91019085
:1001F000F081E02DC7010995F3CF642F0E9487009D
:10020000C801DF91CF911F910F91FF90EF90DF9088
:10021000CF900895CF93DF931F92CDB7DEB7698358
:10022000209182012223D1F020918501203240F0DB
:1002300021E030E0FC013383228380E090E015C0B0
:1002400080918301E82FF0E0E75DFD4F9981908375
:100250008F5F809383018093850105C061E0CE01AB
:1002600001960E94870081E090E00F90DF91CF918E
:1002700008950E94B70A6115710551F0FB010190C4
:100280000020E9F73197AF01461B570B0C94DC05B2
:1002900080E090E008958F929F92AF92BF92EF928C
:1002A000FF920F931F93CF93DF93CDB7DEB7A19744
:1002B0000FB6F894DEBF0FBECDBF7C01262F30E015
:1002C00040E050E019A28E010F5D1F4F8AE0882E9A
:1002D000912CA12CB12CCA01B901A50194010E9455
:1002E000BC0A605DF80162938F012115310541055B
:1002F000510589F7BF01C7010E943B01A1960FB6C6
:10030000F894DEBF0FBECDBFDF91CF911F910F914B
:10031000FF90EF90BF90AF909F908F9008951092B4
:10032000230281E0809322021092FD0161E082E1CC
:100330000E940A0661E083E10E940A06E9EBF0E010
:1003400080818E7F808380818D7F808388E480930D
:10035000B80085E48093BC000895CF93DF9391E0CB
:100360009093B9018823B9F0C091B800D091BA0038
:100370008091BC008A7B8093BC0060E082E10E9497
:100380000A0660E083E10E940A060E948F01D09372
:10039000BA00C093B800DF91CF9108958F929F92D9
:1003A000AF92BF92CF92DF92EF92FF920F931F9383
:1003B000CF93DF9310918501113208F0C2C0082F4E
:1003C000D09184010E9457066B017C01C0912302E9
:1003D000CC2311F18091250290912602A091270251
:1003E000B0912802892B8A2B8B2B81F30E94570610
:1003F0008090250290902602A0902702B0902802BB
:10040000DC01CB018C199D09AE09BF09881699063C
:10041000AA06BB06D8F681C082E08093230200932F
:1004200022028FEF809321021092200210931F026C
:10043000A9E2B2E0EFEFF1E080E0181721F09D9122
:1004400091938F5FFACF1092FE019091FE018D2F54
:10045000880F892B8093FE018091FD01813089F501
:100460001092FD010E9457066B017C018091FE01F4
:100470008093BB008091250290912602A0912702D3
:10048000B0912802892B8A2B8B2BA9F00E9457064A
:100490000091250210912602209127023091280216
:1004A000DC01CB018C199D09AE09BF09081719079A
:1004B0002A073B0790F18091BC0083FDD7CF85ECE4
:1004C00001C085EE8093BC000E9457066B017C0141
:1004D00080912302823039F5809125029091260285
:1004E000A0912702B0912802892B8A2B8B2B81F3B4
:1004F0000E945706009125021091260220912702A2
:1005000030912802DC01CB018C199D09AE09BF098D
:10051000081719072A073B07D8F6809124020E9482
:10052000AD01C5E013C0809121028F3F79F0809129
:100530002102803241F080912102803331F0C4E009
:1005400005C0C1E003C0C2E001C0C3E01092830156
:1005500010928501109282018C2FDF91CF911F9113
:100560000F91FF90EF90DF90CF90BF90AF909F9052
:100570008F900895FC01248131E030938201209313
:10058000840110928301109285018385682B86E88F
:1005900091E00E940A0181E00C94CE010F931F9319
:1005A000CF938C01C62F0E94BA026C2F6460C801E1
:1005B0000E94BA026C2F6B7FC8010E94BA0283ECC2
:1005C00090E00197F1F7CF911F910F9108950F934C
:1005D0001F93CF93DF938C01C62FD42F607F642BA2
:1005E0000E94CE0280E1C89FB00111246D2BC8018A
:1005F000DF91CF911F910F910C94CE02CF93DF9397
:10060000CDB7DEB728970FB6F894DEBF0FBECDBFCB
:100610009C0188E0E0E0F1E0DE01119601900D928E
:100620008A95E1F7F9018085841710F44FEF480FA0
:10063000FE013196E40FF11DE40FF11D9081690F69
:10064000606840E0C90128960FB6F894DEBF0FBE7F
:10065000CDBFDF91CF910C94E70241E00E94E70209
:1006600081E090E008950F931F93CF93DF93CDB770
:10067000DEB78C0142E060E00E94FE026E85C80198
:100680000E944B0142E062E0C8010E94FE0262E368
:1006900071E0C8010E943B0142E063E0C8010E9492
:1006A000FE026D85C8010E944B0162E371E0C80142
:1006B0000E943B0142E065E0C8010E94FE026C8599
:1006C000C8010E944B0142E068E0C8010E94FE029E
:1006D0006B85C8010E944B0142E06AE0C8010E949C
:1006E000FE0241E06AE3C8010E94E70242E06BE0DB
:1006F000C8010E94FE026A85C8010E944B0142E0C7
:100700006DE0C8010E94FE0241E06AE3C8010E9458
:10071000E70242E06EE0C8010E94FE026985C8015E
:100720000E944B0164E371E0C801DF91CF911F91FA
:100730000F910C943B018F929F92AF92BF92CF92F8
:10074000DF92EF92FF920F931F93CF93DF93F82ED8
:10075000D62F613208F0BBC00E9457064B015C01E6
:10076000C0912302CC2331F1809125029091260281
:10077000A0912702B0912802892B8A2B8B2B81F321
:100780000E9457060091250210912602209127020F
:1007900030912802DC01CB0188199909AA09BB090B
:1007A000081719072A073B07D8F6809124020E94F0
:1007B000AD018DC081E080932302809322029FEFE0
:1007C00090932102109220029D0F90931F0280931C
:1007D000FE019091FE018F2D880F892B8093FE01E1
:1007E0008091FD01813089F51092FD010E9457062C
:1007F0006B017C018091FE018093BB0080912502FA
:1008000090912602A0912702B0912802892B8A2B71
:100810008B2BA9F00E94570680902502909026020B
:10082000A0902702B0902802DC01CB018C199D0911
:10083000AE09BF0988169906AA06BB0690F18091F9
:10084000BC0083FDD7CF85EC01C085EE8093BC0052
:100850000E9457066B017C0180912302813031F5A3
:100860008091250290912602A0912702B091280242
:10087000892B8A2B8B2B81F30E94570680902502AF
:1008800090902602A0902702B0902802DC01CB01B4
:100890008C199D09AE09BF0988169906AA06BB06E0
:1008A000D8F6809124020E94AD0112C080912002EE
:1008B0008D1710F4D0912002EFEFF1E0A2E6B1E045
:1008C000C0E0CD1729F081918D93CF5FFACFC0E0C2
:1008D0008C2FDF91CF911F910F91FF90EF90DF90C0
:1008E000CF90BF90AF909F908F90089585ED8093AB
:1008F000BC008091250290912602A0912702B09120
:1009000028020796A11DB11D23E0B695A7959795DE
:1009100087952A95D1F72091BC0024FF1CC04091F7
:100920002502509126026091270270912802452BE2
:10093000462B472B81F30097A105B10541F02AE230
:100940002A95F1F700C00197A109B109E4CF809180
:1009500024020C94AD011092230208951F920F926D
:100960000FB60F9211242F933F934F935F936F9382
:100970007F938F939F93AF93BF93EF93FF93809158
:10098000B900887F803609F49CC068F5883209F484
:100990005BC090F4803109F454C038F4882309F422
:1009A000F6C0883009F44DC0F6C0883109F44CC057
:1009B000803209F45DC0EFC0803409F468C048F4A7
:1009C000803309F455C0883309F0E5C080932102D3
:1009D000D8C0803509F44FC0883509F45DC088342B
:1009E00009F0D9C0D6C0883909F4C7C0A8F488373F
:1009F00009F467C038F4883609F463C0803709F415
:100A000060C0C9C0883809F4B8C0803909F45FC033
:100A1000803809F0C0C05BC0803B09F486C038F460
:100A2000803A09F466C0883A09F47FC0B4C0803CBB
:100A300009F4A7C0883C09F4A4C0883B09F48AC023
:100A4000AAC08091FE0110C09091200280911F02E7
:100A5000981770F5E091200281E08E0F80932002BC
:100A6000F0E0E150FE4F80818093BB0085EC86C0B2
:100A7000809321028EC0E091200281E08E0F80934E
:100A800020028091BB00F0E0E150FE4F8083909106
:100A9000200280911F026EC0E091200281E08E0F43
:100AA000809320028091BB00F0E0E150FE4F8083F4
:100AB0008091220281116DC081E08093FD0184EA62
:100AC00061C083E0809323021092FC01CFCF80911C
:100AD000FC01803208F051C0E091FC0181E08E0FF2
:100AE0008093FC018091BB00F0E0E452FE4F8083D4
:100AF000BDCF85EC8093BC00109223028091FC0155
:100B0000803230F4E091FC01F0E0E452FE4F1082BC
:100B10006091FC0170E0E0916001F09161018CED69
:100B200091E009951092FC0136C084E08093230285
:100B30001092DB011092DA01E0915E01F0915F0109
:100B400009958091DA01811105C081E08093DA0175
:100B50001092BA01E091DB0181E08E0F8093DB01FE
:100B6000F0E0E654FE4F80818093BB009091DB0162
:100B70008091DA01981708F479CF85E88093BC005A
:100B80000AC085EC8093BC001092230204C010922E
:100B900021020E947604FF91EF91BF91AF919F9146
:100BA0008F917F916F915F914F913F912F910F9016
:100BB0000FBE0F901F901895CF92DF92EF92FF9289
:100BC0000F931F93CF93DF936C017A018B01C0E0E9
:100BD000D0E0CE15DF0581F0D8016D918D01D601F1
:100BE000ED91FC910190F081E02DC6010995892BD2
:100BF00011F02196EECF7E01C701DF91CF911F91B9
:100C00000F91FF90EF90DF90CF900895089580E0CE
:100C100090E0089590E0FC01E859FF4F2491FC0119
:100C2000EC55FF4F3491FC01E057FF4FE491EE2368
:100C300009F43CC0222339F1233091F038F42130FB
:100C4000A9F0223001F584B58F7D12C0273091F0D4
:100C50002830A1F02430B9F4809180008F7D03C04A
:100C6000809180008F77809380000DC084B58F774E
:100C700084BD09C08091B0008F7703C08091B0001F
:100C80008F7D8093B000F0E0EE0FFF1FE458FF4F20
:100C9000A591B4919FB7F894611104C08C913095DF
:100CA000382302C0EC913E2B3C939FBF08953FB781
:100CB000F89480914E0290914F02A0915002B09111
:100CC000510226B5A89B05C02F3F19F00196A11D22
:100CD000B11D3FBFBA2FA92F982F8827820F911DD2
:100CE000A11DB11DBC01CD0142E0660F771F881F19
:100CF000991F4A95D1F708958F929F92AF92BF9214
:100D0000CF92DF92EF92FF926B017C010E94570617
:100D10004B015C01C114D104E104F104F1F00E9423
:100D20005706DC01CB0188199909AA09BB09883E3D
:100D30009340A105B10570F321E0C21AD108E10882
:100D4000F10888EE880E83E0981EA11CB11CC11426
:100D5000D104E104F10419F7DDCFFF90EF90DF90AB
:100D6000CF90BF90AF909F908F9008951F920F9259
:100D70000FB60F9211242F933F938F939F93AF93AE
:100D8000BF9380914A0290914B02A0914C02B09186
:100D90004D023091490223E0230F2D3720F40196B4
:100DA000A11DB11D05C026E8230F0296A11DB11D8E
:100DB0002093490280934A0290934B02A0934C02E5
:100DC000B0934D0280914E0290914F02A09150023B
:100DD000B09151020196A11DB11D80934E029093D6
:100DE0004F02A0935002B0935102BF91AF919F91D7
:100DF0008F913F912F910F900FBE0F901F901895DC
:100E0000E6E8F1E01382128288EE93E0A0E0B0E021
:100E100084839583A683B7838CE091E0918380835C
:100E2000EDEAF1E0138212828EE191E091838083FA
:100E300087E2848384E1818784E082871386E2E904
:100E4000F1E088E690E0918380831282138214821D
:100E500015821682178210868FE097E2928781872B
:100E600083E083871486158616861786108A118A72
:100E700080E8828B138A148A158A168A178A8EEF65
:100E8000808F118E128E0895CF93DF93CDB7DEB78A
:100E90002C970FB6F894DEBF0FBECDBF789484B503
:100EA000826084BD84B5816084BD85B5826085BD66
:100EB00085B5816085BD80916E00816080936E00F4
:100EC00010928100809181008260809381008091E6
:100ED0008100816080938100809180008160809397
:100EE00080008091B10084608093B1008091B00057
:100EF00081608093B00080917A00846080937A0052
:100F000080917A00826080937A0080917A0081607B
:100F100080937A0080917A00806880937A001092A2
:100F2000C100E1EBF0E02491EDE9F0E08491882349
:100F300099F090E0880F991FFC01EA57FF4FA591A7
:100F4000B491FC01E458FF4F859194918FB7F894C8
:100F5000EC91E22BEC938FBF10925D0110925C013B
:100F600010928301109285010E948F018FEA90E018
:100F700090935F0180935E0180EB90E0909361011C
:100F8000809360018091B20188608093B20174E027
:100F9000F72EF092B50162E370E080E090E00E94ED
:100FA0007C066091B8018DEA91E00E94BA0268EE79
:100FB00073E080E090E00E947C0660E38DEA91E0BF
:100FC0000E94CE020BE416E4C8010197F1F760E33A
:100FD0008DEA91E00E94CE02C8010197F1F760E32B
:100FE0008DEA91E00E94CE0283E592E00197F1F74D
:100FF00060E28DEA91E00E94CE026091B2016062EF
:1010000040E08DEA91E00E94E702F092B30140E0F7
:101010006CE08DEA91E00E94E70240E061E08DEA39
:1010200091E00E94E7020BE31FE1C8010197F1F78D
:1010300082E08093B40140E066E08DEA91E00E9496
:10104000E70240E062E08DEA91E00E94E702C80119
:101050000197F1F788E08093B80160E08DEA91E0B4
:101060000E94BA0267E371E08DEA91E00E943B01C1
:1010700009E1E0E0EE2EE0E0FE2E77247394CC242C
:10108000CA94FFE7DF2E10E8AEE1AA2EA1E0BA2E47
:101090005EEF652E60E1562E809192017092820182
:1010A00080938401109283011092850160E086E8AC
:1010B00091E00E940A0181E00E94CE0180919D0191
:1010C000813011F468E001C063E1809192010E94D7
:1010D0009B0310925D0180935C0186E891E00E9481
:1010E000C100982F9695969596959E70292F220F60
:1010F000220F920F8F70890F8093940186E891E000
:101100000E94C100982F9695969596959E70292FCE
:10111000220F220F920F8F70890F8093950186E81E
:1011200091E00E94C100982F96959695969596709D
:10113000292F220F220F920F8F70890F8093960113
:1011400086E891E00E94C100982F92959F708F7061
:101150002AE0929F800D112480939A0186E891E005
:101160000E94C100982F92959F708F702AE0929FE5
:10117000800D11248093970186E891E00E94C100C0
:1011800084FB992790F9990F292F220F220F920F94
:101190008F70890F8093980186E891E00E94C100CA
:1011A000982F92959F708F702AE0929F800D112446
:1011B00080939901D0929C01C0929B0180919D01E6
:1011C0008130B9F486E891E00E94C10084FF07C035
:1011D000881F8827881F80958093AA0157C1837034
:1011E0009927019719F45092AA0150C11092AA01AF
:1011F0004DC110929E011093A40186E891E00E94D7
:10120000C100982F991F9927991F20919E01922B19
:1012100090939E01982F9695969596959E70292F5E
:10122000220F220F920F8F70890F80939F0186E803
:1012300091E00E94C100282F207830E0B6E035957B
:101240002795BA95E1F790919E01292B20939E0155
:10125000982F9695969596959E70292F220F220F7E
:10126000920F8F70890F8093A00186E891E00E9411
:10127000C100282F207830E095E0359527959A9584
:10128000E1F790919E01292B20939E01982F96952E
:10129000969596959670292F220F220F920F8F7098
:1012A000890F8093A10186E891E00E94C100282F58
:1012B000207830E044E0359527954A95E1F7909104
:1012C0009E01292B922F9F7041F4482F407450E0CB
:1012D0005595479555954795242B20939E01982F1A
:1012E0009695969596959670292F220F220F920F1C
:1012F0008F70890F8093A20186E891E00E94C1005F
:10130000282F207830E076E0359527957A95E1F71B
:101310009091A401292B2093A401982F969596953E
:1013200096959E70292F220F220F920F8F70890F92
:101330008093A50186E891E00E94C100282F2078C3
:1013400030E0E5E035952795EA95E1F79091A40125
:10135000292B2093A401982F969596959695967093
:10136000292F220F220F920F8F70890F8093A601D1
:1013700086E891E00E94C100282F207830E0F4E058
:1013800035952795FA95E1F79091A401292B922F95
:101390009E7041F4482F407450E0559547955595FF
:1013A0004795242B2093A401982F9E718F70890F4D
:1013B0008093A70186E891E00E94C10082FF14C0DB
:1013C0006092AA0180FF06C090919E019062909366
:1013D0009E0102C010929E0181FF0BC08091A4016A
:1013E00080628093A40107C088718093AA01109243
:1013F0009E011093A40186E891E00E94C100982FFD
:10140000991F9927991F9093AB0183FB992790F916
:101410009093AC0181FB992790F99093A80181707A
:101420008093A30186E891E00E94C10087FD81506E
:101430008093A90186E891E00E94C1004C0186E8F2
:1014400091E00E94C10094013327220F331F220F25
:10145000331F992756E0959587955A95E1F7822B8A
:10146000932B87FE02C09C6F019790939C01809301
:101470009B0120919B0130919C01029FC001039F21
:10148000900D112490939C0180939B0161E08DE06D
:101490000E940A0641E060E08DEA91E00E94FE02AF
:1014A00065E471E08DEA91E00E943B0168EE73E033
:1014B00080E090E00E947C0660E08DE00E940A06D9
:1014C00041E060E08DEA91E00E94FE0260E571E09B
:1014D0008DEA91E00E943B0168EE73E080E090E0CD
:1014E0000E947C068091AF019091B0019C838B8318
:1014F000BA82A9828091B1018D838091B2018E83DD
:101500008091B3018F838091B40188878091B50168
:1015100089878091B6018A878091B7018B878091F6
:10152000B8018C878DB79EB74B970FB6F8949EBFC6
:101530000FBE8DBFADB7BEB711968BE1E2E9F1E00A
:1015400001900D928A95E1F7CE0101960E94330336
:101550000FB6F894DEBF0FBECDBFE114F10409F45D
:101560009BCD0E94000094CDF8940C94E40A81E095
:1015700090E0F8940C94E40AA1E21A2EAA1BBB1B7B
:10158000FD010DC0AA1FBB1FEE1FFF1FA217B3074F
:10159000E407F50720F0A21BB30BE40BF50B661F65
:1015A000771F881F991F1A9469F760957095809529
:1015B00090959B01AC01BD01CF010895EE0FFF1F77
:0C15C0000590F491E02D0994F894FFCF01
:1015CC000000400014005400000000000A01DD007F
:1015DC000706B100D500C100B200000000002D03C9
:1015EC00DC0507060606000000003901DC050706CD
:1015FC0006062F000D0A0048656C6C6F2C20576F87
:10160C00726C642100476F6F642044617920200064
:0C161C00476F6F64204E6967687400001F
:00000001FF
