:100000000C9476000C949E000C949E000C949E0020
:100010000C949E000C949E000C949E000C949E00E8
:100020000C949E000C949E000C949E000C949E00D8
:100030000C949E000C949E000C949E000C949E00C8
:100040000C941F030C949E000C949E000C949E0034
:100050000C949E000C949E000C949E000C949E00A8
:100060000C94340A0C949E003E0641064406470652
:100070004A064D0650065306560659065C065F06AC
:100080006206650668066B066E06710674067706DC
:1000900000000000240027002A00000000002500C6
:1000A00028002B0000000000230026002900040483
:1000B0000404040404040202020202020303030310
:1000C00003030102040810204080010204081020EC
:1000D00001020408102000000008000201000003D3
:1000E000040700000000000000006B1011241FBE78
:1000F000CFEFD8E0DEBFCDBF22E0A2ECB1E001C07F
:100100001D92AD3DB207E1F711E0A0E0B1E0E4E3FC
:10011000FCE202C005900D92A23CB107D9F710E0B5
:10012000C6E7D0E004C02197FE010E941216C53731
:10013000D107C9F70E94B80B0C94C7100C940000AB
:10014000CF92DF92EF92FF920F931F93CF93DF93A3
:100150006C017A018B01C0E0D0E0CE15DF0581F0A3
:10016000D8016D918D01D601ED91FC910190F08146
:10017000E02DC6010995892B11F02196EECF7E0165
:10018000C701DF91CF911F910F91FF90EF90DF900A
:10019000CF900895833081F028F4813099F0823037
:1001A000A1F008958730A9F08830B9F08430D1F4F7
:1001B000809180008F7D03C0809180008F77809335
:1001C0008000089584B58F7702C084B58F7D84BD8B
:1001D00008958091B0008F7703C08091B0008F7D2B
:1001E0008093B0000895CF93DF93282F30E0F9017A
:1001F000EA52FF4F8491F901EE53FF4FD491F90178
:10020000E255FF4FC491CC2391F081110E94CA00A6
:10021000EC2FF0E0EE0FFF1FEC55FF4FA591B491CE
:10022000EC91ED2381E090E021F480E002C080E0D9
:1002300090E0DF91CF910895CF93DF9390E0FC01A0
:10024000EE53FF4F2491FC01E255FF4F8491882328
:1002500061F190E0880F991FFC01E057FF4FC591B5
:10026000D491FC01E656FF4FA591B491611109C0EC
:100270009FB7F8948881209582238883EC912E2360
:100280000BC0623061F49FB7F8948881322F3095AB
:1002900083238883EC912E2B2C939FBF06C08FB7AE
:1002A000F894E8812E2B28838FBFDF91CF9108959A
:1002B00008950895089580E090E008950E9428131D
:1002C0000F931F93CF93DF93EC018881998100975F
:1002D00029F02A813B812617370788F48B016F5F4D
:1002E0007F4F0E946212009761F0998388831B837D
:1002F0000A832C813D81232B11F4FC01108281E0C3
:1003000001C080E0DF91CF911F910F910895EF928E
:10031000FF920F931F93CF93DF936115710511F433
:1003200080E01CC041155105C1F07B01EC018C81BE
:100330009D818A01080F191FB801CE010E9460013A
:10034000882371F3288139818C819D81B701820FC7
:10035000931F0E9436131D830C8381E0DF91CF91A0
:100360001F910F91FF90EF900895CF93DF93EC01D1
:1003700088819981009711F00E94D9111982188201
:100380001D821C821B821A82DF91CF910895CF9328
:10039000DF93EC016115710561F0FB010190002014
:1003A000E9F73197AF01461B570B0E948701811176
:1003B00003C0CE010E94B501CE01DF91CF91089517
:1003C000EF92FF920F931F93CF93DF93EC017B018A
:1003D0008A01BA010E946001811104C0CE010E940D
:1003E000B50107C01D830C83B701888199810E94E4
:1003F0003613CE01DF91CF911F910F91FF90EF90B7
:1004000008951F93CF93DF93282F30E0F901EA522C
:10041000FF4F8491F901EE53FF4FD491F901E2555A
:10042000FF4FC491CC23C1F0162F81110E94CA0046
:10043000EC2FF0E0EE0FFF1FE656FF4FA591B491B1
:100440009FB7F894111104C08C91D095D82302C0A5
:10045000EC91DE2BDC939FBFDF91CF911F9108952C
:100460003FB7F8948091C3019091C401A091C50158
:10047000B091C60126B5A89B05C02F3F19F0019683
:10048000A11DB11D3FBFBA2FA92F982F8827820F1A
:10049000911DA11DB11DBC01CD0142E0660F771F6A
:1004A000881F991F4A95D1F708958F929F92AF9216
:1004B000BF92CF92DF92EF92FF926B017C010E947C
:1004C00030024B015C01C114D104E104F104F1F0EC
:1004D0000E943002DC01CB0188199909AA09BB09E5
:1004E000883E9340A105B10570F321E0C21AD108FE
:1004F000E108F10888EE880E83E0981EA11CB11C6B
:10050000C114D104E104F10419F7DDCFFF90EF909D
:10051000DF90CF90BF90AF909F908F9008950F93F2
:100520001F93CF93DF93EC01423018F08C818860E9
:100530008C834F836887222329F0413019F48C8102
:1005400084608C8364E670E080E090E00E94550255
:100550006C8164FD31C0E881F9810684F785E02D66
:1005600042E063E0CE0109958BE496E40197F1F750
:10057000E881F9810684F785E02D42E063E0CE0151
:10058000099503E512E0C8010197F1F7E881F981C7
:100590000684F785E02D42E063E0CE010995C801AD
:1005A0000197F1F7E881F9810684F785E02D42E0B3
:1005B00062E0CE01099517C06062CE010E94B00BC7
:1005C0008BE496E40197F1F76C816062CE010E94A2
:1005D000B00B03E512E0C8010197F1F76C8160628E
:1005E000CE010E94B00BC8010197F1F76C816062E7
:1005F000CE010E94B00B8BEE90E00197F1F784E002
:100600008D836CE0CE010E94B00B61E0CE010E94B0
:10061000B00B8BE39FE10197F1F782E08E8366E0F8
:10062000CE010E94B00BE881F9810484F585E02DAC
:100630006FEFCE01DF91CF911F910F9109941F921F
:100640000F920FB60F9211242F933F938F939F9386
:10065000AF93BF938091C7019091C801A091C90148
:10066000B091CA013091C20123E0230F2D3720F44D
:100670000196A11DB11D05C026E8230F0296A11DFC
:10068000B11D2093C2018093C7019093C801A0932C
:10069000C901B093CA018091C3019091C401A09196
:1006A000C501B091C6010196A11DB11D8093C30182
:1006B0009093C401A093C501B093C601BF91AF91BF
:1006C0009F918F913F912F910F900FBE0F901F9090
:1006D00018956115710551F0FB0101900020E9F7B3
:1006E0003197AF01461B570B0C94A00080E090E0BF
:1006F0000895FC0180819181009711F00C94D9112B
:100700000895CF93DF93EC01FB0144815581608113
:1007100071810E948701811103C0CE010E94B50141
:10072000CE01DF91CF910895EF92FF920F931F9327
:10073000CF93DF93CDB7DEB729970FB6F894DEBF1E
:100740000FBECDBF8C01862FF8011182108213825B
:100750001282158214824AE09E012F5F3F4F790179
:10076000B90190E00E94CA10F70101900020E9F75A
:100770003197AF014E195F09B701C8010E94E0012E
:1007800029960FB6F894DEBF0FBECDBFDF91CF9193
:100790001F910F91FF90EF900895CF92DF92EF920B
:1007A000FF926B017C0182E090E00E943311992757
:1007B000F7FC9A958F2D7E2D6D2D83E090E00E94A1
:1007C0003311B701992777FD9095892F84E090E048
:1007D000FF90EF90DF90CF900C9433110F931F9305
:1007E000CF93DF9382E090E00E942B11C82F83E02B
:1007F00090E00E942B11D82F84E090E00E942B11F2
:100800004C2F50E060E070E0682B8D2F90E0982F27
:100810008827092E000CAA0BBB0B8C019D01042B11
:10082000152B262B372BC901B801DF91CF911F91D2
:100830000F9108950C946903CF93DF93CDB7DEB782
:1008400028970FB6F894DEBF0FBECDBFFC01809194
:10085000090190910A01A0910B01B0910C018D83C7
:100860009E83AF83B88780910D0190910E01A09176
:100870000F01B091100189839A83AB83BC83878178
:10088000481710F04FEF480F908550E0DE01A40F9D
:10089000B51F903129F4843019F411969C9102C04F
:1008A00015969C91690F6068CF0128960FB6F89451
:1008B000DEBF0FBECDBFDF91CF910C94B00BCF92B6
:1008C000DF92EF92FF920F931F93CF93DF93CDB7F9
:1008D000DEB7E0970FB6F894DEBF0FBECDBF6C0158
:1008E0001CA61BA61EA61DA618AA1FA68E01055D86
:1008F0001F4F40E050E06CE671E0C8010E94E0014B
:100900006DADCE0101960E9494036EADCE010796A7
:100910000E9494036FADCE010D960E949403219620
:100920006FAD2197CE0143960E94940322966FAD3E
:100930002297CE0149960E94940323966FAD239788
:10094000CE0185960E94940318A21F8E1AA219A2A6
:100950001CA21BA26DA17EA16115710531F049A5F4
:100960005AA5CE014F960E94E00162EB71E0CE01E4
:100970004F960E94C701BE01675E7F4F0E948103B0
:1009800062EB71E00E94C701BE016D5E7F4F0E9465
:1009900081036BE671E00E94C701BE01635F7F4F78
:1009A0000E94810364EB71E00E94C701BE01695F90
:1009B0007F4F0E94810364EB71E00E94C701BE017A
:1009C0006F5F7F4F0E9481038017910779F0FC01D0
:1009D000608171816115710531F044815581C801D3
:1009E0000E94E00103C0C8010E94B501CE014F96EC
:1009F0000E947903CE0185960E947903CE01499623
:100A00000E947903CE0143960E947903CE010D9690
:100A10000E947903CE0107960E947903CE010196C8
:100A20000E947903EFA4F8A8F4E1EF16F1045CF456
:100A300041E050E06BE671E0C8010E9487018FEF52
:100A4000E81AF80AF1CF40E060E0C6010E941C04F9
:100A50004FA558A96BA57CA5C6010E94A000C8019E
:100A60000E947903E0960FB6F894DEBF0FBECDBFAB
:100A7000DF91CF911F910F91FF90EF90DF90CF907A
:100A80000895FC01DB0187E291E091838083129657
:100A90008D919C9113979383828314968C911497D4
:100AA000848315968C911597858316968C9116974D
:100AB000868317968C911797878318968C91189731
:100AC000808719968D919C911A979287818783E3ED
:100AD00091E0918380831B968C911B9783871C9652
:100AE0008C911C9784871D968C911D9785871E96E7
:100AF0004D915D916D917C91519746875787608BA1
:100B0000718B52968C915297828B53968C915397FE
:100B1000838B54968C915497848B55968D919D918F
:100B20000D90BC91A02D858B968BA78BB08F0895CF
:100B30004F925F926F927F928F929F92AF92BF92ED
:100B4000CF92DF92EF92FF920F931F93CF93DF9399
:100B5000CDB7DEB7A1970FB6F894DEBF0FBECDBFFD
:100B60004C016A017B01CA0157FF04C088279927FD
:100B7000841B950B9F938F9386EB91E09F938F93AC
:100B80008E010F5F1F4F1F930F930E943D13F801BB
:100B900001900020E9F731975F01A01AB10A42E005
:100BA00060E0C4010E941C0469EB71E0C4010E9472
:100BB0001A0442E068E0C4010E941C040F900F90E8
:100BC0000F900F900F900F90F7FE24C06DE2C401BC
:100BD0000E94490922273327A9012C193D094E09F2
:100BE0005F0919A2CE0181967C019AE0492E512C11
:100BF000612C712CCA01B901A30192010E94F01568
:100C0000605DF70162937F012115310541055105B2
:100C100089F71AC0A701960119A2CE0181967C011D
:100C20008AE0482E512C612C712CCA01B901A30114
:100C300092010E94F015605DF70162937F0121151A
:100C400031054105510589F7B701C4010E946903C7
:100C500068E06A0D42E0C4010E941C04B401C801AE
:100C60000E944105F501E095F0953D96E431F105CE
:100C700008F040C0EC5CFF4F0C9412166BE671E07C
:100C80003BC06AE671E038C069E671E035C068E6ED
:100C900071E032C067E671E02FC066E671E02CC0FB
:100CA00065E671E029C064E671E026C063E671E0A4
:100CB00023C062E671E020C061E671E01DC060E61D
:100CC00071E01AC06FE571E017C06EE571E014C005
:100CD0006DE571E011C06CE571E00EC06BE571E08F
:100CE0000BC06AE571E008C069E571E005C068E520
:100CF00071E002C06CE671E0C8010E941A04A1967E
:100D00000FB6F894DEBF0FBECDBFDF91CF911F911C
:100D10000F91FF90EF90DF90CF90BF90AF909F909A
:100D20008F907F906F905F904F9008958F929F92D9
:100D3000AF92BF92CF92DF92EF92FF920F931F93E9
:100D4000CF93DF9310914E02113208F0C2C0082FEA
:100D5000D0914D020E9430026B017C01C0912502AE
:100D6000CC2311F18091270290912802A0912902B1
:100D7000B0912A02892B8A2B8B2B81F30E9430029F
:100D80008090270290902802A0902902B0902A0219
:100D9000DC01CB018C199D09AE09BF0988169906A3
:100DA000AA06BB06D8F681C082E080932502009394
:100DB00024028FEF809323021092220210932102CB
:100DC000ADE2B2E0E1E0F2E080E0181721F09D91A1
:100DD00091938F5FFACF10920002909100028D2FB5
:100DE000880F892B809300028091FF01813089F563
:100DF0001092FF010E9430026B017C018091000281
:100E00008093BB008091270290912802A091290233
:100E1000B0912A02892B8A2B8B2BA9F00E943002D9
:100E200000912702109128022091290230912A0274
:100E3000DC01CB018C199D09AE09BF090817190700
:100E40002A073B0790F18091BC0083FDD7CF85EC4A
:100E500001C085EE8093BC000E9430026B017C01D2
:100E600080912502823039F58091270290912802E5
:100E7000A0912902B0912A02892B8A2B8B2B81F316
:100E80000E9430020091270210912802209129022D
:100E900030912A02DC01CB018C199D09AE09BF09F2
:100EA000081719072A073B07D8F6809126020E94E7
:100EB000DB09C5E013C0809123028F3F79F0809158
:100EC0002302803241F080912302803331F0C4E06C
:100ED00005C0C1E003C0C2E001C0C3E010922C0213
:100EE00010924E0210922B028C2FDF91CF911F9106
:100EF0000F91FF90EF90DF90CF90BF90AF909F90B9
:100F00008F900895FC0183818823C9F0962F618119
:100F1000609569236083828191E090932B02809396
:100F20004D0210922C0210924E028FE492E00E9429
:100F3000060981E00E949606282F30E002C020E0DA
:100F400030E081E090E0232B11F080E090E0089504
:100F50008F929F92AF92BF92CF92DF92EF92FF92C9
:100F60000F931F93CF93DF93F82ED62F613208F0A3
:100F7000BBC00E9430024B015C01C0912502CC2312
:100F800031F18091270290912802A0912902B0911D
:100F90002A02892B8A2B8B2B81F30E94300200912D
:100FA0002702109128022091290230912A02DC01A7
:100FB000CB0188199909AA09BB09081719072A073B
:100FC0003B07D8F6809126020E94DB098DC081E0A4
:100FD00080932502809324029FEF90932302109226
:100FE00022029D0F909321028093000290910002B3
:100FF0008F2D880F892B809300028091FF01813013
:1010000089F51092FF010E9430026B017C018091F2
:1010100000028093BB008091270290912802A0914A
:101020002902B0912A02892B8A2B8B2BA9F00E94CE
:1010300030028090270290902802A0902902B09060
:101040002A02DC01CB018C199D09AE09BF09881663
:101050009906AA06BB0690F18091BC0083FDD7CF0C
:1010600085EC01C085EE8093BC000E9430026B01CC
:101070007C0180912502813031F580912702909189
:101080002802A0912902B0912A02892B8A2B8B2B4E
:1010900081F30E9430028090270290902802A09055
:1010A0002902B0902A02DC01CB018C199D09AE09FE
:1010B000BF0988169906AA06BB06D8F680912602B3
:1010C0000E94DB0912C0809122028D1710F4D0918A
:1010D0002202E1E0F2E0AFEDB1E0C0E0CD1729F08F
:1010E00081918D93CF5FFACFC0E08C2FDF91CF91AC
:1010F0001F910F91FF90EF90DF90CF90BF90AF9036
:101100009F908F9008954091B602262F30E0240FD3
:10111000311D21323105DCF4209125022430C9F43F
:10112000FC0180E090E0861758F43091B6022191DE
:10113000DC01AA56BD4FA30FB11D2C930196F3CF2E
:101140008091B602680F6093B60280E0089581E056
:10115000089582E00895089508950895E091900219
:1011600080918F02E81730F4F0E0E152FE4F808169
:1011700090E008958FEF9FEF0895909190028091F5
:101180008F02981750F4E92FF0E0E152FE4F2081D2
:1011900030E09F5F9093900202C02FEF3FEFC901B4
:1011A000089580918F0290E020919002821B910916
:1011B0000895CF92DF92EF92FF920F931F93CF93F8
:1011C000DF937C01CB018A0120912B02222389F03D
:1011D000EB016B01C40ED51ECC15DD0569F06991DC
:1011E000D701ED91FC910190F081E02DC7010995A7
:1011F000F3CF642F0E948308C801DF91CF911F9124
:101200000F91FF90EF90DF90CF900895CF93DF93F1
:101210001F92CDB7DEB7698320912B022223D1F034
:1012200020914E02203240F021E030E0FC01338377
:10123000228380E090E015C080912C02E82FF0E03E
:10124000E35DFD4F998190838F5F80932C028093A3
:101250004E0205C061E0CE0101960E94830881E044
:1012600090E00F90DF91CF91089521E001C0220F0F
:101270006A95EAF7DC011C962C931C971A965C93EE
:101280004E931997ED91FC910484F585E02D60E073
:101290000994DC01ED91FC910684F785E02D41E095
:1012A000099581E090E00895EF92FF920F931F93CC
:1012B000CF938C01FC0184E0C0E060FF02C09589FF
:1012C000C92B6695815031968111F7CF413011F4C9
:1012D000F8014489F8018585C82BC42B7801FEE00C
:1012E000EF0EF11CF80162896C2BC7010E94820786
:1012F000F801628960956C23C701CF911F910F910E
:10130000FF90EF900C9482070F931F93CF93DF937E
:10131000062F0F70423019F440E0602F0EC0142FDA
:10132000EC0170E084E0759567958A95E1F7CE0150
:101330000E945409412F602FCE01DF91CF911F9160
:101340000F910C945409FC0184858823A9F0218510
:1013500032852115310519F4611106C007C021300D
:10136000310521F4611102C0858701C015866585AC
:10137000CF010E960C94820708951092250281E009
:10138000809324021092FF0161E082E10E94010239
:1013900061E083E10E940102E9EBF0E080818E7F51
:1013A000808380818D7F808388E48093B80085E48A
:1013B0008093BC000895CF93DF9391E090939502C2
:1013C0008823B9F0C091B800D091BA008091BC00D8
:1013D0008A7B8093BC0060E082E10E94010260E0B1
:1013E00083E10E9401020E94BD09D093BA00C0931C
:1013F000B800DF91CF91089585ED8093BC00809176
:10140000270290912802A0912902B0912A02079602
:10141000A11DB11D23E0B695A795979587952A95AF
:10142000D1F72091BC0024FF1CC0409127025091AD
:1014300028026091290270912A02452B462B472BE6
:1014400081F30097A105B10541F02AE22A95F1F751
:1014500000C00197A109B109E4CF809126020C9444
:10146000DB091092250208951F920F920FB60F927A
:1014700011242F933F934F935F936F937F938F9399
:101480009F93AF93BF93EF93FF938091B900887FB1
:10149000803609F49CC068F5883209F45BC090F48A
:1014A000803109F454C038F4882309F4F6C0883038
:1014B00009F44DC0F6C0883109F44CC0803209F4FB
:1014C0005DC0EFC0803409F468C048F4803309F48B
:1014D00055C0883309F0E5C080932302D8C0803519
:1014E00009F44FC0883509F45DC0883409F0D9C0CB
:1014F000D6C0883909F4C7C0A8F4883709F467C092
:1015000038F4883609F463C0803709F460C0C9C074
:10151000883809F4B8C0803909F45FC0803809F010
:10152000C0C05BC0803B09F486C038F4803A09F43F
:1015300066C0883A09F47FC0B4C0803C09F4A7C0F3
:10154000883C09F4A4C0883B09F48AC0AAC08091F1
:10155000000210C09091220280912102981770F52C
:10156000E091220281E08E0F80932202F0E0EF5F93
:10157000FD4F80818093BB0085EC86C08093230261
:101580008EC0E091220281E08E0F80932202809132
:10159000BB00F0E0EF5FFD4F8083909122028091CD
:1015A00021026EC0E091220281E08E0F8093220220
:1015B0008091BB00F0E0EF5FFD4F808380912402BB
:1015C00081116DC081E08093FF0184EA61C083E0F6
:1015D000809325021092D802CFCF8091D80280321A
:1015E00008F051C0E091D80281E08E0F8093D802BC
:1015F0008091BB00F0E0E854FD4F8083BDCF85ECC7
:101600008093BC00109225028091D802803230F481
:10161000E091D802F0E0E854FD4F10826091D802CA
:1016200070E0E0919302F091940288EB92E00995CA
:101630001092D80236C084E0809325021092B7023F
:101640001092B602E0919102F09192020995809178
:10165000B602811105C081E08093B6021092960215
:10166000E091B70281E08E0F8093B702F0E0EA5676
:10167000FD4F80818093BB009091B7028091B602AC
:10168000981708F479CF85E88093BC000AC085ECF0
:101690008093BC001092250204C0109223020E9485
:1016A000FC09FF91EF91BF91AF919F918F917F9135
:1016B0006F915F914F913F912F910F900FBE0F90BF
:1016C0001F901895FF920F931F93CF93DF93EC0118
:1016D000162F042FF22E8B85888B10929002109279
:1016E0008F0210922C0210924E020E94BD098BEACA
:1016F00098E090939202809391028CEA98E0909304
:10170000940280939302888991E090932B028093B6
:101710004D0210922C0210924E0281E00E94960619
:1017200091E0811190E0998B811105C08FE492E0E6
:101730000E94BD088E878989882339F01F861C8204
:1017400060E0CE010E960E9482072F2D402F612F60
:10175000CE01DF91CF911F910F91FF900C948F02DA
:10176000DC01ED91FC910684F785E02D40E00994C1
:10177000CF93DF93CDB7DEB769970FB6F894DEBF8E
:101780000FBECDBF789484B5826084BD84B581607E
:1017900084BD85B5826085BD85B5816085BD80913C
:1017A0006E00816080936E001092810080918100B4
:1017B00082608093810080918100816080938100AC
:1017C000809180008160809380008091B10084606E
:1017D0008093B1008091B00081608093B0008091CF
:1017E0007A00846080937A0080917A00826080938E
:1017F0007A0080917A00816080937A0080917A00EB
:10180000806880937A001092C10061E08DE00E94B0
:101810001C011092900210928F0210922C021092D2
:101820004E020E94BD098BEA98E090939202809349
:1018300091028CEA98E0909394028093930220E0C6
:1018400044E064E186E792E00E94620B61E086E793
:1018500092E00E94A30960E084E00E941C0160E025
:1018600083E00E941C0160E086E00E941C0160E0B1
:1018700085E00E941C0160E087E00E941C0161E09D
:101880008DE00E941C0183E00E94F300892B31F05F
:1018900086E00E94F300892B09F0CBC384E00E940C
:1018A000F300892B31F086E00E94F300892B09F0C8
:1018B000CBC384E00E94F300892B31F085E00E94C5
:1018C000F300892B09F0C9C30E94EE036B017C0170
:1018D0006093DB017093DC018093DD019093DE0166
:1018E00066E772E0CE0101960E944105B701A601AC
:1018F000CE0101960E94980560E08DE00E940102F1
:1019000080E0C82E80E0D82E77247394AA24AA946D
:101910009FE7B92E20E8622EEE24E394F12C882470
:101920008A94982C80915B0270922B0280934D02D6
:1019300010922C0210924E0260E08FE492E00E941E
:10194000060981E00E94960680916602813011F4BA
:1019500068E001C063E180915B020E94A8071092D9
:10196000900280938F028FE492E00E94BD08982F2E
:101970009695969596959E70292F220F220F920F7D
:101980008F70890F80935D028FE492E00E94BD0802
:10199000982F9695969596959E70292F220F220F37
:1019A000920F8F70890F80935E028FE492E00E9405
:1019B000BD08982F9695969596959670292F220F8B
:1019C000220F920F8F70890F80935F028FE492E055
:1019D0000E94BD08982F92959F708F702AE0929F69
:1019E000800D1124809363028FE492E00E94BD0871
:1019F000982F92959F708F703AE0939F800D1124DD
:101A0000809360028FE492E00E94BD0884FB9927D6
:101A100090F9990F292F220F220F920F8F70890FA3
:101A2000809361028FE492E00E94BD08982F929506
:101A30009F708F704AE0949F800D11248093620202
:101A4000B0926502A0926402809166028130B1F486
:101A50008FE492E00E94BD0884FF05C0881F88279C
:101A6000881F809505C083709927019721F480E134
:101A70008093730252C1109273024FC11092670299
:101A800060926D028FE492E00E94BD08982F991F2A
:101A90009927991F20916702922B90936702982FA4
:101AA0009695969596959E70292F220F220F920F4C
:101AB0008F70890F809368028FE492E00E94BD08C6
:101AC000282F207830E0B6E035952795BA95E1F7D4
:101AD00090916702292B20936702982F96959695EF
:101AE00096959E70292F220F220F920F8F70890FCB
:101AF000809369028FE492E00E94BD08282F20782D
:101B000030E015E0359527951A95E1F79091670239
:101B1000292B20936702982F969596959695967007
:101B2000292F220F220F920F8F70890F80936A0244
:101B30008FE492E00E94BD08282F207830E004E076
:101B4000359527950A95E1F790916702292B922FF9
:101B50009F7041F4482F407450E055954795559536
:101B60004795242B20936702982F969596959695E6
:101B70009670292F220F220F920F8F70890F80935A
:101B80006B028FE492E00E94BD08282F207830E09D
:101B900076E0359527957A95E1F790916D02292B9E
:101BA00020936D02982F9695969596959E70292F65
:101BB000220F220F920F8F70890F80936E028FE495
:101BC00092E00E94BD08282F207830E0E5E03595AE
:101BD0002795EA95E1F790916D02292B20936D02EC
:101BE000982F9695969596959670292F220F220FED
:101BF000920F8F70890F80936F028FE492E00E94A2
:101C0000BD08282F207830E0F4E035952795FA9527
:101C1000E1F790916D02292B922F9E7041F4482F8D
:101C2000407450E05595479555954795242B209342
:101C30006D02982F9E718F70890F809370028FE4D0
:101C400092E00E94BD0882FF15C09EEF9093730240
:101C500080FF06C09091670290629093670202C075
:101C60001092670281FF0BC080916D0280628093A9
:101C70006D0207C0887180937302109267026092B0
:101C80006D028FE492E00E94BD08982F991F99275A
:101C9000991F9093740283FB992790F99093750292
:101CA00081FB992790F990937102817080936C0267
:101CB0008FE492E00E94BD0887FD815080937202FC
:101CC0008FE492E00E94BD088C018FE492E00E94B4
:101CD000BD0898013327220F331F220F331F992786
:101CE00056E0959587955A95E1F7822B932B07FF40
:101CF00002C09C6F019790936502809364022091CB
:101D000064023091650249E1429FC001439F900DFA
:101D10001124909365028093640266E772E0CE011D
:101D200001960E9441058DB79EB74B970FB6F89468
:101D30009EBF0FBE8DBFADB7BEB711968BE1EBE571
:101D4000F2E001900D928A95E1F7CE0101960E9492
:101D50005F0487E00E94F3000FB6F894DEBF0FBE69
:101D6000CDBF892BE9F443E060E086E792E00E9472
:101D70001C0463E471E086E792E00E941A048091FB
:101D8000020181114FC16091DB017091DC018091F2
:101D9000DD019091DE010E94CD037092020142C1EB
:101DA000809102018823C1F00E94EE036093DB0161
:101DB0007093DC018093DD019093DE0143E060E0ED
:101DC00086E792E00E941C0468E571E086E792E0F5
:101DD0000E941A041092020183E00E94F300892BF2
:101DE00031F086E00E94F300892B09F041C184E0C4
:101DF0000E94F300892B31F086E00E94F300892BCA
:101E000009F047C184E00E94F300892B31F085E09E
:101E10000E94F300892B09F04DC18091D901909166
:101E2000DA012091D7013091D8018217930709F484
:101E30003FC04091DB015091DC016091DD01709168
:101E4000DE010097D9F08130910521F08F3F3FEFFF
:101E5000930771F52091D5013091D6018217930730
:101E600039F54F5F5F4F6F4F7F4F4093DB015093CA
:101E7000DC016093DD017093DE011AC0E091D401B2
:101E8000EE2391F02091D5013091D601232B61F4FE
:101E90004F5F5F4F6F4F7F4F4093DB015093DC01EB
:101EA0006093DD017093DE0141E0E427E093D4010B
:101EB0009093D8018093D7012090DB013090DC0112
:101EC0004090DD015090DE0166E772E0CE010196A0
:101ED0000E944105B201A101CE0101960E94980520
:101EE0008091DB019091DC01A091DD01B091DE01D8
:101EF000803E9047A247B10564F061E08DE00E940A
:101F000001021092DB011092DC011092DD011092AF
:101F1000DE0182E00E94F3009093D3018093D2010E
:101F200020910001309101018217930799F02FB79A
:101F3000F8948091C7019091C801A091C901B09116
:101F4000CA012FBF8093CE019093CF01A093D001FF
:101F5000B093D1012FB7F8948091C7019091C80137
:101F6000A091C901B091CA012FBF4091CE015091FB
:101F7000CF016091D0017091D101841B950BA60B0C
:101F8000B70B89389341A105B105F8F08091D201D2
:101F90009091D3012091CC013091CD01821793070C
:101FA000A1F09093CD018093CC01892B71F443E093
:101FB00060E086E792E00E941C046DE671E086E72F
:101FC00092E00E941A047092CB018091D20190910C
:101FD000D30190930101809300018091CB0188236C
:101FE00009F160E070E0CB010E94CD031092DB01AB
:101FF0001092DC011092DD011092DE011092CB01F3
:1020000060ED77E080E090E00E94550243E060E000
:1020100086E792E00E941C0468E571E086E792E0A2
:102020000E941A04C114D10409F47CCC0E9400005F
:1020300079CC8FEF9FEF9093D8018093D701909345
:10204000D6018093D5012ACC1092D8011092D701E5
:102050001092D6011092D5012CCC81E090E09093A3
:10206000D8018093D7019093D6018093D5012CCCD1
:102070009092DA018092D90141E060E086E792E037
:102080000E941C0462E871E086E792E00E941A0454
:10209000AECE1092DA011092D90141E060E086E7FD
:1020A00092E00E941C0462E971E086E792E00E94DF
:1020B0001A04A8CEF092DA01E092D90141E060E082
:1020C00086E792E00E941C0462EA71E086E792E0F3
:1020D0000E941A04A2CEEFE4F2E01382128288EE8C
:1020E00093E0A0E0B0E084839583A683B78385E185
:1020F00091E091838083E6E7F2E01382128283E32A
:1021000091E091838083108A8FEF87871686118AEA
:1021100087E28387148615861286118680E4828B77
:1021200080E2838B80E1848B81E0858B82E0868BEB
:1021300084E0878B88E0808F44E050E064E1CF0149
:102140000E943509EBE5F2E088E690E09183808318
:1021500012821382148215821682178210868FE0F3
:1021600097E29287818783E0838714861586168697
:102170001786108A118A80E8828B138A148A158A3E
:10218000168A178A8EEF808F118E128E0895F8941A
:102190000C941816BB27FB015527AA27880F991FF7
:1021A000AA1FA41710F0A41B83955051B9F7A05D86
:1021B000AA3308F0A95DA193009779F7B111B19303
:1021C0001192CB010C94E410DC01FC01672F71919A
:1021D0007723E1F7329704C07C916D93708362910D
:1021E000AE17BF07C8F308952F923F924F925F92A8
:1021F0006F927F928F929F92AF92BF92CF92DF9217
:10220000EF92FF920F931F93CF93DF93CDB7DEB77B
:10221000CA1BDB0B0FB6F894DEBF0FBECDBF09940F
:102220002A88398848885F846E847D848C849B8466
:10223000AA84B984C884DF80EE80FD800C811B8174
:10224000AA81B981CE0FD11D0FB6F894DEBF0FBEA3
:10225000CDBFED010895F999FECF92BD81BDF89AE9
:10226000992780B50895262FF999FECF1FBA92BD00
:1022700081BD20BD0FB6F894FA9AF99A0FBE019667
:1022800008950F931F93CF93DF938230910510F43D
:1022900082E090E0E091DB02F091DC0220E030E0AF
:1022A000A0E0B0E0309719F14081518102811381A3
:1022B00048175907C8F08417950769F4109731F04B
:1022C00012960C93129713961C9327C00093DB026F
:1022D0001093DC0222C02115310519F04217530773
:1022E00018F49A01BD01EF01DF01F801DBCF2115E0
:1022F0003105F9F0281B390B2430310580F48A812F
:102300009B816115710521F0FB019383828304C0D9
:102310009093DC028093DB02FE01329644C0FE0102
:10232000E20FF31F8193919322503109398328835F
:102330003AC02091D9023091DA02232B41F4209146
:102340000501309106013093DA022093D9022091E1
:102350000301309104012115310541F42DB73EB739
:102360004091070150910801241B350BE091D902DF
:10237000F091DA02E217F307A0F42E1B3F0B2817A7
:10238000390778F0AC014E5F5F4F2417350748F0EE
:102390004E0F5F1F5093DA024093D90281939193BD
:1023A00002C0E0E0F0E0CF01DF91CF911F910F91EB
:1023B0000895CF93DF93009709F481C0FC01329711
:1023C00013821282A091DB02B091DC02109781F49B
:1023D00020813181820F931F2091D9023091DA023E
:1023E0002817390751F5F093DA02E093D90267C054
:1023F000ED0120E030E0CE17DF0740F44A815B8139
:102400009E0141155105F1F0EA01F5CFD383C28356
:1024100040815181840F951FC817D90759F48881CD
:102420009981840F951F0296918380838A819B8175
:10243000938382832115310529F4F093DC02E09324
:10244000DB023DC0E901FB83EA8349915991C40F46
:10245000D51FEC17FD0761F480819181840F951FD2
:102460000296E90199838883828193819B838A8381
:10247000E0E0F0E012968D919C911397009719F08F
:10248000FD01DC01F7CF8D919C9111979D012E5F8D
:102490003F4F820F931F2091D9023091DA02281703
:1024A000390769F4309729F41092DC021092DB02AC
:1024B00002C013821282B093DA02A093D902DF9194
:1024C000CF910895A0E0B0E0E8E6F2E10C94F810B6
:1024D000EC01009721F4CB010E944111B4C0FC0132
:1024E000E60FF71F9C0122503109E217F30708F4A9
:1024F000A8C0D9010D911C91119706171707B0F0CC
:102500000530110508F49BC0C8010497861797078A
:1025100008F495C002501109061B170B0193119383
:102520006D937C93CF010E94D91189C05B01A01AE1
:10253000B10A4C01800E911EA091DB02B091DC0229
:10254000612C712CE12CF12C109709F446C08D916F
:102550009C911197A815B905B1F56C0142E0C40E24
:10256000D11CCA14DB0478F14C018A189B08640161
:1025700042E0C40ED11C1296BC9012971396AC91F7
:10258000B5E0CB16D10440F0B282A3839182808261
:10259000D9016D937C9309C00E5F1F4F800F911F6F
:1025A000F90191838083EB2DFA2FE114F10431F0CE
:1025B000D7011396FC93EE93129741C0F093DC027F
:1025C000E093DB023CC06816790608F43C017D010B
:1025D00012960D90BC91A02DB7CF8091D902909109
:1025E000DA0288169906E1F466167706C8F4809137
:1025F000030190910401009741F48DB79EB740917B
:10260000070150910801841B950BE817F907C8F4DE
:10261000F093DA02E093D902F901718360830FC06D
:10262000CB010E9441117C01009759F0A801BE0125
:102630000E942D13CE010E94D911C70104C0CE0102
:1026400002C080E090E0CDB7DEB7EEE00C9414114C
:1026500081E090E0F8940C941816FB01DC0102C0B4
:1026600001900D9241505040D8F70895FB01DC01D4
:1026700001900D920020E1F70895AEE0B0E0E3E4B0
:10268000F3E10C9402110D891E8986E08C831A8374
:1026900009838FEF9FE79E838D83AE01475E5F4F77
:1026A0006F89788DCE0101960E945F13EF81F885C6
:1026B000E00FF11F10822E96E4E00C941E11ABE0A7
:1026C000B0E0E5E6F3E10C94F4106C017B018A01C3
:1026D000FC0117821682838181FFCCC1CE01019655
:1026E0003C01F6019381F70193FD859193FF819160
:1026F0007F01882309F4BAC1853239F493FD8591AD
:1027000093FF81917F01853229F4B60190E00E9408
:102710005615E7CF912C212C312CFFE1F315D8F081
:102720008B3279F038F4803279F08332A1F4232DA2
:1027300020611DC08D3261F0803369F4232D21604A
:1027400016C0832D8260382EE32DE4603E2E2AC011
:10275000F32DF8601DC037FC2DC020ED280F2A3066
:1027600040F08E32B9F436FC81C1232D2064322E24
:1027700019C036FE06C08AE0989E200D1124922EC4
:1027800011C0EAE02E9E200D1124222EF32DF062BE
:102790003F2E08C08C3621F4832D8068382E02C06D
:1027A000883641F4F70193FD859193FF81917F0174
:1027B0008111B3CF982F9F7D9554933028F40C5FEF
:1027C0001F4F9FE399830DC0833631F0833771F03B
:1027D000833509F059C021C0F801808189830E5FDB
:1027E0001F4F88248394912C530113C02801F2E0D9
:1027F0004F0E511CF801A080B18036FE03C0692D38
:1028000070E002C06FEF7FEFC5010E944B154C01D5
:102810008201F32DFF773F2E16C0280122E0420EE1
:10282000511CF801A080B18036FE03C0692D70E014
:1028300002C06FEF7FEFC5010E9440154C01F32DE0
:10284000F0683F2E820133FC1BC0822D90E0881679
:102850009906B0F4B60180E290E00E9456152A94E1
:10286000F4CFF50137FC859137FE81915F01B60108
:1028700090E00E94561521102A9421E0821A9108B6
:102880008114910471F7E8C0843611F0893641F55E
:10289000F80137FE07C060817181828193810C5FEE
:1028A0001F4F08C060817181072E000C880B990BA7
:1028B0000E5F1F4FF32DFF763F2E97FF09C09095B7
:1028C0008095709561957F4F8F4F9F4FF0683F2E99
:1028D0002AE030E0A3010E949215882E861845C098
:1028E000853731F4232D2F7EB22E2AE030E025C02B
:1028F000932D997FB92E8F36C1F018F4883579F071
:10290000B5C0803719F0883721F0B0C0E92FE061F9
:10291000BE2EB4FE0DC0FB2DF460BF2E09C034FEE8
:102920000AC0292F2660B22E06C028E030E005C07C
:1029300020E130E002C020E132E0F801B7FE07C03C
:1029400060817181828193810C5F1F4F06C060811D
:10295000718180E090E00E5F1F4FA3010E949215ED
:10296000882E8618FB2DFF773F2E36FE0DC0232DB7
:102970002E7FA22E891458F434FE0BC032FC09C0FD
:10298000832D8E7EA82E05C0B82CA32C03C0B82C96
:1029900001C0B92CA4FE0FC0FE01E80DF11D80811D
:1029A000803321F49A2D997EA92E09C0A2FE06C07B
:1029B000B394B39404C08A2D867809F0B394A3FC31
:1029C00011C0A0FE06C0B21488F4280C922C9B18EB
:1029D0000EC0B21460F4B60180E290E00E94561579
:1029E000B394F7CFB21418F42B1802C0982C212CF2
:1029F000A4FE10C0B60180E390E00E945615A2FE2E
:102A000017C0A1FC03C088E790E002C088E590E011
:102A1000B6010CC08A2D867859F0A1FE02C08BE267
:102A200001C080E2A7FC8DE2B60190E00E9456153D
:102A3000891438F4B60180E390E00E9456159A9408
:102A4000F7CF8A94F301E80DF11D8081B60190E083
:102A50000E9456158110F5CF222009F442CEB6010E
:102A600080E290E00E9456152A94F6CFF601868106
:102A7000978102C08FEF9FEF2B96E2E10C9410112B
:102A8000FC010590615070400110D8F78095909539
:102A90008E0F9F1F0895FC0161507040019001103E
:102AA000D8F7809590958E0F9F1F08950F931F93D1
:102AB000CF93DF93FB01238121FD03C08FEF9FEFB5
:102AC0002CC022FF16C046815781248135814217D0
:102AD000530744F4A081B1819D012F5F3F4F3183A3
:102AE00020838C93268137812F5F3F4F3783268346
:102AF00014C08B01EC01FB010084F185E02D0995E8
:102B0000892BE1F6D80116968D919C911797019625
:102B100017969C938E931697CE01DF91CF911F91BC
:102B20000F910895FA01AA27283051F1203181F13F
:102B3000E8946F936E7F6E5F7F4F8F4F9F4FAF4FC5
:102B4000B1E03ED0B4E03CD0670F781F891F9A1FD8
:102B5000A11D680F791F8A1F911DA11D6A0F711D8C
:102B6000811D911DA11D20D009F468943F912AE098
:102B7000269F11243019305D3193DEF6CF01089580
:102B8000462F4770405D4193B3E00FD0C9F7F6CFB1
:102B9000462F4F70405D4A3318F0495D31FD405279
:102BA000419302D0A9F7EACFB4E0A695979587950F
:102BB00077956795BA95C9F70097610571050895EE
:102BC0009B01AC010A2E069457954795379527959A
:102BD000BA95C9F7620F731F841F951FA01D089532
:102BE000A1E21A2EAA1BBB1BFD010DC0AA1FBB1F11
:102BF000EE1FFF1FA217B307E407F50720F0A21B83
:102C0000B30BE40BF50B661F771F881F991F1A94EF
:102C100069F760957095809590959B01AC01BD0119
:102C2000CF010895EE0FFF1F0590F491E02D099458
:042C3000F894FFCF46
:102C34000100010000DD0220000040145400401097
:102C440050000000000609D9085B01AD08D108BD99
:102C540008AE08000000005E01A0005B015A0100FC
:102C64000000004909A0005B015A01620B3509A369
:102C7400098409506F77657220446F776E20202095
:102C84002020202020202000202020202020202060
:102C940020202020202020202020202000436F7589
:102CA4006E74205265736574696E672E2E2E202013
:102CB4002000506F736974696F6E204C65667420D0
:102CC4002000506F736974696F6E204D6964646C81
:102CD4006500506F736974696F6E20526967687418
:102CE40020002F003A00256400436F756E743A206B
:022CF4000000DE
:00000001FF
